{"contracts/tba/TBAManager.sol":{"TBAManager":{"abi":[{"inputs":[{"internalType":"address","name":"_registry","type":"address"},{"internalType":"address","name":"_implementation","type":"address"}],"stateMutability":"nonpayable","type":"constructor"},{"inputs":[],"name":"accountImplementation","outputs":[{"internalType":"address","name":"","type":"address"}],"stateMutability":"view","type":"function"},{"inputs":[{"internalType":"address","name":"tokenContract","type":"address"},{"internalType":"uint256","name":"tokenId","type":"uint256"}],"name":"createAccount","outputs":[{"internalType":"address","name":"","type":"address"}],"stateMutability":"nonpayable","type":"function"},{"inputs":[{"internalType":"address","name":"tokenContract","type":"address"},{"internalType":"uint256","name":"tokenId","type":"uint256"}],"name":"getAccount","outputs":[{"internalType":"address","name":"","type":"address"}],"stateMutability":"view","type":"function"},{"inputs":[],"name":"registry","outputs":[{"internalType":"contract IERC6551Registry","name":"","type":"address"}],"stateMutability":"view","type":"function"}],"evm":{"bytecode":{"linkReferences":{},"object":"60c060405234801561000f575f5ffd5b506040516103af3803806103af83398101604081905261002e91610060565b6001600160a01b039182166080521660a052610091565b80516001600160a01b038116811461005b575f5ffd5b919050565b5f5f60408385031215610071575f5ffd5b61007a83610045565b915061008860208401610045565b90509250929050565b60805160a0516102e46100cb5f395f818160530152818160f501526101c501525f818160bc0152818161013b015261020b01526102e45ff3fe608060405234801561000f575f5ffd5b506004361061004a575f3560e01c806311464fbe1461004e5780635fbfb9cf14610091578063670079eb146100a45780637b103999146100b7575b5f5ffd5b6100757f000000000000000000000000000000000000000000000000000000000000000081565b6040516001600160a01b03909116815260200160405180910390f35b61007561009f366004610269565b6100de565b6100756100b2366004610269565b6101ae565b6100757f000000000000000000000000000000000000000000000000000000000000000081565b604051638a54c52f60e01b81526001600160a01b037f0000000000000000000000000000000000000000000000000000000000000000811660048301525f60248301819052466044840152848216606484015260848301849052917f000000000000000000000000000000000000000000000000000000000000000090911690638a54c52f9060a4016020604051808303815f875af1158015610183573d5f5f3e3d5ffd5b505050506040513d601f19601f820116820180604052508101906101a79190610293565b9392505050565b60405163246a002160e01b81526001600160a01b037f0000000000000000000000000000000000000000000000000000000000000000811660048301525f60248301819052466044840152848216606484015260848301849052917f00000000000000000000000000000000000000000000000000000000000000009091169063246a00219060a401602060405180830381865afa158015610183573d5f5f3e3d5ffd5b6001600160a01b0381168114610266575f5ffd5b50565b5f5f6040838503121561027a575f5ffd5b823561028581610252565b946020939093013593505050565b5f602082840312156102a3575f5ffd5b81516101a78161025256fea264697066735822122051716e2a72fa76e616b43c251b84ddc9c95c4ae3b59597135e044958e45dbefc64736f6c634300081c0033","opcodes":"PUSH1 0xC0 PUSH1 0x40 MSTORE CALLVALUE DUP1 ISZERO PUSH2 0xF JUMPI PUSH0 PUSH0 REVERT JUMPDEST POP PUSH1 0x40 MLOAD PUSH2 0x3AF CODESIZE SUB DUP1 PUSH2 0x3AF DUP4 CODECOPY DUP2 ADD PUSH1 0x40 DUP2 SWAP1 MSTORE PUSH2 0x2E SWAP2 PUSH2 0x60 JUMP JUMPDEST PUSH1 0x1 PUSH1 0x1 PUSH1 0xA0 SHL SUB SWAP2 DUP3 AND PUSH1 0x80 MSTORE AND PUSH1 0xA0 MSTORE PUSH2 0x91 JUMP JUMPDEST DUP1 MLOAD PUSH1 0x1 PUSH1 0x1 PUSH1 0xA0 SHL SUB DUP2 AND DUP2 EQ PUSH2 0x5B JUMPI PUSH0 PUSH0 REVERT JUMPDEST SWAP2 SWAP1 POP JUMP JUMPDEST PUSH0 PUSH0 PUSH1 0x40 DUP4 DUP6 SUB SLT ISZERO PUSH2 0x71 JUMPI PUSH0 PUSH0 REVERT JUMPDEST PUSH2 0x7A DUP4 PUSH2 0x45 JUMP JUMPDEST SWAP2 POP PUSH2 0x88 PUSH1 0x20 DUP5 ADD PUSH2 0x45 JUMP JUMPDEST SWAP1 POP SWAP3 POP SWAP3 SWAP1 POP JUMP JUMPDEST PUSH1 0x80 MLOAD PUSH1 0xA0 MLOAD PUSH2 0x2E4 PUSH2 0xCB PUSH0 CODECOPY PUSH0 DUP2 DUP2 PUSH1 0x53 ADD MSTORE DUP2 DUP2 PUSH1 0xF5 ADD MSTORE PUSH2 0x1C5 ADD MSTORE PUSH0 DUP2 DUP2 PUSH1 0xBC ADD MSTORE DUP2 DUP2 PUSH2 0x13B ADD MSTORE PUSH2 0x20B ADD MSTORE PUSH2 0x2E4 PUSH0 RETURN INVALID PUSH1 0x80 PUSH1 0x40 MSTORE CALLVALUE DUP1 ISZERO PUSH2 0xF JUMPI PUSH0 PUSH0 REVERT JUMPDEST POP PUSH1 0x4 CALLDATASIZE LT PUSH2 0x4A JUMPI PUSH0 CALLDATALOAD PUSH1 0xE0 SHR DUP1 PUSH4 0x11464FBE EQ PUSH2 0x4E JUMPI DUP1 PUSH4 0x5FBFB9CF EQ PUSH2 0x91 JUMPI DUP1 PUSH4 0x670079EB EQ PUSH2 0xA4 JUMPI DUP1 PUSH4 0x7B103999 EQ PUSH2 0xB7 JUMPI JUMPDEST PUSH0 PUSH0 REVERT JUMPDEST PUSH2 0x75 PUSH32 0x0 DUP2 JUMP JUMPDEST PUSH1 0x40 MLOAD PUSH1 0x1 PUSH1 0x1 PUSH1 0xA0 SHL SUB SWAP1 SWAP2 AND DUP2 MSTORE PUSH1 0x20 ADD PUSH1 0x40 MLOAD DUP1 SWAP2 SUB SWAP1 RETURN JUMPDEST PUSH2 0x75 PUSH2 0x9F CALLDATASIZE PUSH1 0x4 PUSH2 0x269 JUMP JUMPDEST PUSH2 0xDE JUMP JUMPDEST PUSH2 0x75 PUSH2 0xB2 CALLDATASIZE PUSH1 0x4 PUSH2 0x269 JUMP JUMPDEST PUSH2 0x1AE JUMP JUMPDEST PUSH2 0x75 PUSH32 0x0 DUP2 JUMP JUMPDEST PUSH1 0x40 MLOAD PUSH4 0x8A54C52F PUSH1 0xE0 SHL DUP2 MSTORE PUSH1 0x1 PUSH1 0x1 PUSH1 0xA0 SHL SUB PUSH32 0x0 DUP2 AND PUSH1 0x4 DUP4 ADD MSTORE PUSH0 PUSH1 0x24 DUP4 ADD DUP2 SWAP1 MSTORE CHAINID PUSH1 0x44 DUP5 ADD MSTORE DUP5 DUP3 AND PUSH1 0x64 DUP5 ADD MSTORE PUSH1 0x84 DUP4 ADD DUP5 SWAP1 MSTORE SWAP2 PUSH32 0x0 SWAP1 SWAP2 AND SWAP1 PUSH4 0x8A54C52F SWAP1 PUSH1 0xA4 ADD PUSH1 0x20 PUSH1 0x40 MLOAD DUP1 DUP4 SUB DUP2 PUSH0 DUP8 GAS CALL ISZERO DUP1 ISZERO PUSH2 0x183 JUMPI RETURNDATASIZE PUSH0 PUSH0 RETURNDATACOPY RETURNDATASIZE PUSH0 REVERT JUMPDEST POP POP POP POP PUSH1 0x40 MLOAD RETURNDATASIZE PUSH1 0x1F NOT PUSH1 0x1F DUP3 ADD AND DUP3 ADD DUP1 PUSH1 0x40 MSTORE POP DUP2 ADD SWAP1 PUSH2 0x1A7 SWAP2 SWAP1 PUSH2 0x293 JUMP JUMPDEST SWAP4 SWAP3 POP POP POP JUMP JUMPDEST PUSH1 0x40 MLOAD PUSH4 0x246A0021 PUSH1 0xE0 SHL DUP2 MSTORE PUSH1 0x1 PUSH1 0x1 PUSH1 0xA0 SHL SUB PUSH32 0x0 DUP2 AND PUSH1 0x4 DUP4 ADD MSTORE PUSH0 PUSH1 0x24 DUP4 ADD DUP2 SWAP1 MSTORE CHAINID PUSH1 0x44 DUP5 ADD MSTORE DUP5 DUP3 AND PUSH1 0x64 DUP5 ADD MSTORE PUSH1 0x84 DUP4 ADD DUP5 SWAP1 MSTORE SWAP2 PUSH32 0x0 SWAP1 SWAP2 AND SWAP1 PUSH4 0x246A0021 SWAP1 PUSH1 0xA4 ADD PUSH1 0x20 PUSH1 0x40 MLOAD DUP1 DUP4 SUB DUP2 DUP7 GAS STATICCALL ISZERO DUP1 ISZERO PUSH2 0x183 JUMPI RETURNDATASIZE PUSH0 PUSH0 RETURNDATACOPY RETURNDATASIZE PUSH0 REVERT JUMPDEST PUSH1 0x1 PUSH1 0x1 PUSH1 0xA0 SHL SUB DUP2 AND DUP2 EQ PUSH2 0x266 JUMPI PUSH0 PUSH0 REVERT JUMPDEST POP JUMP JUMPDEST PUSH0 PUSH0 PUSH1 0x40 DUP4 DUP6 SUB SLT ISZERO PUSH2 0x27A JUMPI PUSH0 PUSH0 REVERT JUMPDEST DUP3 CALLDATALOAD PUSH2 0x285 DUP2 PUSH2 0x252 JUMP JUMPDEST SWAP5 PUSH1 0x20 SWAP4 SWAP1 SWAP4 ADD CALLDATALOAD SWAP4 POP POP POP JUMP JUMPDEST PUSH0 PUSH1 0x20 DUP3 DUP5 SUB SLT ISZERO PUSH2 0x2A3 JUMPI PUSH0 PUSH0 REVERT JUMPDEST DUP2 MLOAD PUSH2 0x1A7 DUP2 PUSH2 0x252 JUMP INVALID LOG2 PUSH5 0x6970667358 0x22 SLT KECCAK256 MLOAD PUSH18 0x6E2A72FA76E616B43C251B84DDC9C95C4AE3 0xB5 SWAP6 SWAP8 SGT MCOPY DIV BLOBHASH PC 0xE4 TSTORE 0xBE 0xFC PUSH5 0x736F6C6343 STOP ADDMOD SHR STOP CALLER "},"methodIdentifiers":{"accountImplementation()":"11464fbe","createAccount(address,uint256)":"5fbfb9cf","getAccount(address,uint256)":"670079eb","registry()":"7b103999"}}}}}