{"project/contracts/tba/ERC6551Account.sol":{"ERC6551Account":{"abi":[{"inputs":[{"internalType":"address","name":"to","type":"address"},{"internalType":"uint256","name":"value","type":"uint256"},{"internalType":"bytes","name":"data","type":"bytes"},{"internalType":"uint8","name":"operation","type":"uint8"}],"name":"execute","outputs":[{"internalType":"bytes","name":"result","type":"bytes"}],"stateMutability":"payable","type":"function"},{"inputs":[{"internalType":"bytes32","name":"hash","type":"bytes32"},{"internalType":"bytes","name":"signature","type":"bytes"}],"name":"isValidSignature","outputs":[{"internalType":"bytes4","name":"magicValue","type":"bytes4"}],"stateMutability":"view","type":"function"},{"inputs":[{"internalType":"address","name":"signer","type":"address"},{"internalType":"bytes","name":"","type":"bytes"}],"name":"isValidSigner","outputs":[{"internalType":"bytes4","name":"","type":"bytes4"}],"stateMutability":"view","type":"function"},{"inputs":[],"name":"owner","outputs":[{"internalType":"address","name":"","type":"address"}],"stateMutability":"view","type":"function"},{"inputs":[],"name":"state","outputs":[{"internalType":"uint256","name":"","type":"uint256"}],"stateMutability":"view","type":"function"},{"inputs":[{"internalType":"bytes4","name":"interfaceId","type":"bytes4"}],"name":"supportsInterface","outputs":[{"internalType":"bool","name":"","type":"bool"}],"stateMutability":"pure","type":"function"},{"inputs":[],"name":"token","outputs":[{"internalType":"uint256","name":"","type":"uint256"},{"internalType":"address","name":"","type":"address"},{"internalType":"uint256","name":"","type":"uint256"}],"stateMutability":"view","type":"function"},{"stateMutability":"payable","type":"receive"}],"evm":{"bytecode":{"linkReferences":{},"object":"6080604052348015600e575f5ffd5b506112898061001c5f395ff3fe608060405260043610610073575f3560e01c8063523e32601161004d578063523e3260146101265780638da5cb5b14610162578063c19d93fb1461018c578063fc0c546a146101b65761007a565b806301ffc9a71461007e5780631626ba7e146100ba57806351945447146100f65761007a565b3661007a57005b5f5ffd5b348015610089575f5ffd5b506100a4600480360381019061009f919061098b565b6101e2565b6040516100b191906109d0565b60405180910390f35b3480156100c5575f5ffd5b506100e060048036038101906100db9190610b58565b61031b565b6040516100ed9190610bc1565b60405180910390f35b610110600480360381019061010b9190610cfa565b610355565b60405161011d9190610dde565b60405180910390f35b348015610131575f5ffd5b5061014c60048036038101906101479190610dfe565b610480565b6040516101599190610bc1565b60405180910390f35b34801561016d575f5ffd5b506101766104ac565b6040516101839190610e6a565b60405180910390f35b348015610197575f5ffd5b506101a0610551565b6040516101ad9190610e92565b60405180910390f35b3480156101c1575f5ffd5b506101ca610556565b6040516101d993929190610eab565b60405180910390f35b5f7f01ffc9a7000000000000000000000000000000000000000000000000000000007bffffffffffffffffffffffffffffffffffffffffffffffffffffffff1916827bffffffffffffffffffffffffffffffffffffffffffffffffffffffff191614806102ac57507f6faff5f1000000000000000000000000000000000000000000000000000000007bffffffffffffffffffffffffffffffffffffffffffffffffffffffff1916827bffffffffffffffffffffffffffffffffffffffffffffffffffffffff1916145b8061031457507f1626ba7e000000000000000000000000000000000000000000000000000000007bffffffffffffffffffffffffffffffffffffffffffffffffffffffff1916827bffffffffffffffffffffffffffffffffffffffffffffffffffffffff1916145b9050919050565b5f5f61032f6103286104ac565b858561056c565b9050801561034757631626ba7e60e01b91505061034f565b5f60e01b9150505b92915050565b606061036033610618565b61039f576040517f08c379a000000000000000000000000000000000000000000000000000000000815260040161039690610f3a565b60405180910390fd5b5f8260ff16146103e4576040517f08c379a00000000000000000000000000000000000000000000000000000000081526004016103db90610fc8565b60405180910390fd5b5f5f81546103f190611013565b919050819055505f8673ffffffffffffffffffffffffffffffffffffffff16868686604051610421929190611088565b5f6040518083038185875af1925050503d805f811461045b576040519150601f19603f3d011682016040523d82523d5f602084013e610460565b606091505b50809350819250505080610476573d5f5f3e3d5ffd5b5095945050505050565b5f61048a84610618565b1561049e57631626ba7e60e01b90506104a5565b5f60e01b90505b9392505050565b5f5f5f5f6104b8610556565b9250925092504683146104d0575f935050505061054e565b8173ffffffffffffffffffffffffffffffffffffffff16636352211e826040518263ffffffff1660e01b81526004016105099190610e92565b602060405180830381865afa158015610524573d5f5f3e3d5ffd5b505050506040513d601f19601f8201168201806040525081019061054891906110b4565b93505050505b90565b5f5481565b5f5f5f610561610656565b925092509250909192565b5f5f8473ffffffffffffffffffffffffffffffffffffffff163b03610603575f5f6105978585610689565b50915091505f60038111156105af576105ae6110df565b5b8160038111156105c2576105c16110df565b5b1480156105fa57508573ffffffffffffffffffffffffffffffffffffffff168273ffffffffffffffffffffffffffffffffffffffff16145b92505050610611565b61060e8484846106de565b90505b9392505050565b5f6106216104ac565b73ffffffffffffffffffffffffffffffffffffffff168273ffffffffffffffffffffffffffffffffffffffff16149050919050565b5f5f5f5f3073ffffffffffffffffffffffffffffffffffffffff163b905061067d816107fd565b93509350935050909192565b5f5f5f60418451036106c9575f5f5f602087015192506040870151915060608701515f1a90506106bb8882858561083e565b9550955095505050506106d7565b5f600285515f1b9250925092505b9250925092565b5f5f5f8573ffffffffffffffffffffffffffffffffffffffff16858560405160240161070b92919061111b565b604051602081830303815290604052631626ba7e60e01b6020820180517bffffffffffffffffffffffffffffffffffffffffffffffffffffffff838183161783525050505060405161075d9190611179565b5f60405180830381855afa9150503d805f8114610795576040519150601f19603f3d011682016040523d82523d5f602084013e61079a565b606091505b50915091508180156107ae57506020815110155b80156107f25750631626ba7e60e01b7bffffffffffffffffffffffffffffffffffffffffffffffffffffffff1916818060200190518101906107f091906111a3565b145b925050509392505050565b5f5f5f5f602d8561080e91906111ce565b90506020606086035f303c5f5193506020604086035f303c5f51925060208086035f303c5f519150509193909250565b5f5f5f7f7fffffffffffffffffffffffffffffff5d576e7357a4501ddfe92f46681b20a0845f1c111561087a575f60038592509250925061091b565b5f6001888888886040515f815260200160405260405161089d9493929190611210565b6020604051602081039080840390855afa1580156108bd573d5f5f3e3d5ffd5b5050506020604051035190505f73ffffffffffffffffffffffffffffffffffffffff168173ffffffffffffffffffffffffffffffffffffffff160361090e575f60015f5f1b9350935093505061091b565b805f5f5f1b935093509350505b9450945094915050565b5f604051905090565b5f5ffd5b5f5ffd5b5f7fffffffff0000000000000000000000000000000000000000000000000000000082169050919050565b61096a81610936565b8114610974575f5ffd5b50565b5f8135905061098581610961565b92915050565b5f602082840312156109a05761099f61092e565b5b5f6109ad84828501610977565b91505092915050565b5f8115159050919050565b6109ca816109b6565b82525050565b5f6020820190506109e35f8301846109c1565b92915050565b5f819050919050565b6109fb816109e9565b8114610a05575f5ffd5b50565b5f81359050610a16816109f2565b92915050565b5f5ffd5b5f5ffd5b5f601f19601f8301169050919050565b7f4e487b71000000000000000000000000000000000000000000000000000000005f52604160045260245ffd5b610a6a82610a24565b810181811067ffffffffffffffff82111715610a8957610a88610a34565b5b80604052505050565b5f610a9b610925565b9050610aa78282610a61565b919050565b5f67ffffffffffffffff821115610ac657610ac5610a34565b5b610acf82610a24565b9050602081019050919050565b828183375f83830152505050565b5f610afc610af784610aac565b610a92565b905082815260208101848484011115610b1857610b17610a20565b5b610b23848285610adc565b509392505050565b5f82601f830112610b3f57610b3e610a1c565b5b8135610b4f848260208601610aea565b91505092915050565b5f5f60408385031215610b6e57610b6d61092e565b5b5f610b7b85828601610a08565b925050602083013567ffffffffffffffff811115610b9c57610b9b610932565b5b610ba885828601610b2b565b9150509250929050565b610bbb81610936565b82525050565b5f602082019050610bd45f830184610bb2565b92915050565b5f73ffffffffffffffffffffffffffffffffffffffff82169050919050565b5f610c0382610bda565b9050919050565b610c1381610bf9565b8114610c1d575f5ffd5b50565b5f81359050610c2e81610c0a565b92915050565b5f819050919050565b610c4681610c34565b8114610c50575f5ffd5b50565b5f81359050610c6181610c3d565b92915050565b5f5ffd5b5f5ffd5b5f5f83601f840112610c8457610c83610a1c565b5b8235905067ffffffffffffffff811115610ca157610ca0610c67565b5b602083019150836001820283011115610cbd57610cbc610c6b565b5b9250929050565b5f60ff82169050919050565b610cd981610cc4565b8114610ce3575f5ffd5b50565b5f81359050610cf481610cd0565b92915050565b5f5f5f5f5f60808688031215610d1357610d1261092e565b5b5f610d2088828901610c20565b9550506020610d3188828901610c53565b945050604086013567ffffffffffffffff811115610d5257610d51610932565b5b610d5e88828901610c6f565b93509350506060610d7188828901610ce6565b9150509295509295909350565b5f81519050919050565b5f82825260208201905092915050565b8281835e5f83830152505050565b5f610db082610d7e565b610dba8185610d88565b9350610dca818560208601610d98565b610dd381610a24565b840191505092915050565b5f6020820190508181035f830152610df68184610da6565b905092915050565b5f5f5f60408486031215610e1557610e1461092e565b5b5f610e2286828701610c20565b935050602084013567ffffffffffffffff811115610e4357610e42610932565b5b610e4f86828701610c6f565b92509250509250925092565b610e6481610bf9565b82525050565b5f602082019050610e7d5f830184610e5b565b92915050565b610e8c81610c34565b82525050565b5f602082019050610ea55f830184610e83565b92915050565b5f606082019050610ebe5f830186610e83565b610ecb6020830185610e5b565b610ed86040830184610e83565b949350505050565b5f82825260208201905092915050565b7f496e76616c6964207369676e65720000000000000000000000000000000000005f82015250565b5f610f24600e83610ee0565b9150610f2f82610ef0565b602082019050919050565b5f6020820190508181035f830152610f5181610f18565b9050919050565b7f4f6e6c792063616c6c206f7065726174696f6e732061726520737570706f72745f8201527f6564000000000000000000000000000000000000000000000000000000000000602082015250565b5f610fb2602283610ee0565b9150610fbd82610f58565b604082019050919050565b5f6020820190508181035f830152610fdf81610fa6565b9050919050565b7f4e487b71000000000000000000000000000000000000000000000000000000005f52601160045260245ffd5b5f61101d82610c34565b91507fffffffffffffffffffffffffffffffffffffffffffffffffffffffffffffffff820361104f5761104e610fe6565b5b600182019050919050565b5f81905092915050565b5f61106f838561105a565b935061107c838584610adc565b82840190509392505050565b5f611094828486611064565b91508190509392505050565b5f815190506110ae81610c0a565b92915050565b5f602082840312156110c9576110c861092e565b5b5f6110d6848285016110a0565b91505092915050565b7f4e487b71000000000000000000000000000000000000000000000000000000005f52602160045260245ffd5b611115816109e9565b82525050565b5f60408201905061112e5f83018561110c565b81810360208301526111408184610da6565b90509392505050565b5f61115382610d7e565b61115d818561105a565b935061116d818560208601610d98565b80840191505092915050565b5f6111848284611149565b915081905092915050565b5f8151905061119d816109f2565b92915050565b5f602082840312156111b8576111b761092e565b5b5f6111c58482850161118f565b91505092915050565b5f6111d882610c34565b91506111e383610c34565b92508282039050818111156111fb576111fa610fe6565b5b92915050565b61120a81610cc4565b82525050565b5f6080820190506112235f83018761110c565b6112306020830186611201565b61123d604083018561110c565b61124a606083018461110c565b9594505050505056fea2646970667358221220ead6f3a50f3be1d7f3b1637b7bc71f08974a0c4a73a57770ac8c72d07ab5964764736f6c634300081c0033","opcodes":"PUSH1 0x80 PUSH1 0x40 MSTORE CALLVALUE DUP1 ISZERO PUSH1 0xE JUMPI PUSH0 PUSH0 REVERT JUMPDEST POP PUSH2 0x1289 DUP1 PUSH2 0x1C PUSH0 CODECOPY PUSH0 RETURN INVALID PUSH1 0x80 PUSH1 0x40 MSTORE PUSH1 0x4 CALLDATASIZE LT PUSH2 0x73 JUMPI PUSH0 CALLDATALOAD PUSH1 0xE0 SHR DUP1 PUSH4 0x523E3260 GT PUSH2 0x4D JUMPI DUP1 PUSH4 0x523E3260 EQ PUSH2 0x126 JUMPI DUP1 PUSH4 0x8DA5CB5B EQ PUSH2 0x162 JUMPI DUP1 PUSH4 0xC19D93FB EQ PUSH2 0x18C JUMPI DUP1 PUSH4 0xFC0C546A EQ PUSH2 0x1B6 JUMPI PUSH2 0x7A JUMP JUMPDEST DUP1 PUSH4 0x1FFC9A7 EQ PUSH2 0x7E JUMPI DUP1 PUSH4 0x1626BA7E EQ PUSH2 0xBA JUMPI DUP1 PUSH4 0x51945447 EQ PUSH2 0xF6 JUMPI PUSH2 0x7A JUMP JUMPDEST CALLDATASIZE PUSH2 0x7A JUMPI STOP JUMPDEST PUSH0 PUSH0 REVERT JUMPDEST CALLVALUE DUP1 ISZERO PUSH2 0x89 JUMPI PUSH0 PUSH0 REVERT JUMPDEST POP PUSH2 0xA4 PUSH1 0x4 DUP1 CALLDATASIZE SUB DUP2 ADD SWAP1 PUSH2 0x9F SWAP2 SWAP1 PUSH2 0x98B JUMP JUMPDEST PUSH2 0x1E2 JUMP JUMPDEST PUSH1 0x40 MLOAD PUSH2 0xB1 SWAP2 SWAP1 PUSH2 0x9D0 JUMP JUMPDEST PUSH1 0x40 MLOAD DUP1 SWAP2 SUB SWAP1 RETURN JUMPDEST CALLVALUE DUP1 ISZERO PUSH2 0xC5 JUMPI PUSH0 PUSH0 REVERT JUMPDEST POP PUSH2 0xE0 PUSH1 0x4 DUP1 CALLDATASIZE SUB DUP2 ADD SWAP1 PUSH2 0xDB SWAP2 SWAP1 PUSH2 0xB58 JUMP JUMPDEST PUSH2 0x31B JUMP JUMPDEST PUSH1 0x40 MLOAD PUSH2 0xED SWAP2 SWAP1 PUSH2 0xBC1 JUMP JUMPDEST PUSH1 0x40 MLOAD DUP1 SWAP2 SUB SWAP1 RETURN JUMPDEST PUSH2 0x110 PUSH1 0x4 DUP1 CALLDATASIZE SUB DUP2 ADD SWAP1 PUSH2 0x10B SWAP2 SWAP1 PUSH2 0xCFA JUMP JUMPDEST PUSH2 0x355 JUMP JUMPDEST PUSH1 0x40 MLOAD PUSH2 0x11D SWAP2 SWAP1 PUSH2 0xDDE JUMP JUMPDEST PUSH1 0x40 MLOAD DUP1 SWAP2 SUB SWAP1 RETURN JUMPDEST CALLVALUE DUP1 ISZERO PUSH2 0x131 JUMPI PUSH0 PUSH0 REVERT JUMPDEST POP PUSH2 0x14C PUSH1 0x4 DUP1 CALLDATASIZE SUB DUP2 ADD SWAP1 PUSH2 0x147 SWAP2 SWAP1 PUSH2 0xDFE JUMP JUMPDEST PUSH2 0x480 JUMP JUMPDEST PUSH1 0x40 MLOAD PUSH2 0x159 SWAP2 SWAP1 PUSH2 0xBC1 JUMP JUMPDEST PUSH1 0x40 MLOAD DUP1 SWAP2 SUB SWAP1 RETURN JUMPDEST CALLVALUE DUP1 ISZERO PUSH2 0x16D JUMPI PUSH0 PUSH0 REVERT JUMPDEST POP PUSH2 0x176 PUSH2 0x4AC JUMP JUMPDEST PUSH1 0x40 MLOAD PUSH2 0x183 SWAP2 SWAP1 PUSH2 0xE6A JUMP JUMPDEST PUSH1 0x40 MLOAD DUP1 SWAP2 SUB SWAP1 RETURN JUMPDEST CALLVALUE DUP1 ISZERO PUSH2 0x197 JUMPI PUSH0 PUSH0 REVERT JUMPDEST POP PUSH2 0x1A0 PUSH2 0x551 JUMP JUMPDEST PUSH1 0x40 MLOAD PUSH2 0x1AD SWAP2 SWAP1 PUSH2 0xE92 JUMP JUMPDEST PUSH1 0x40 MLOAD DUP1 SWAP2 SUB SWAP1 RETURN JUMPDEST CALLVALUE DUP1 ISZERO PUSH2 0x1C1 JUMPI PUSH0 PUSH0 REVERT JUMPDEST POP PUSH2 0x1CA PUSH2 0x556 JUMP JUMPDEST PUSH1 0x40 MLOAD PUSH2 0x1D9 SWAP4 SWAP3 SWAP2 SWAP1 PUSH2 0xEAB JUMP JUMPDEST PUSH1 0x40 MLOAD DUP1 SWAP2 SUB SWAP1 RETURN JUMPDEST PUSH0 PUSH32 0x1FFC9A700000000000000000000000000000000000000000000000000000000 PUSH28 0xFFFFFFFFFFFFFFFFFFFFFFFFFFFFFFFFFFFFFFFFFFFFFFFFFFFFFFFF NOT AND DUP3 PUSH28 0xFFFFFFFFFFFFFFFFFFFFFFFFFFFFFFFFFFFFFFFFFFFFFFFFFFFFFFFF NOT AND EQ DUP1 PUSH2 0x2AC JUMPI POP PUSH32 0x6FAFF5F100000000000000000000000000000000000000000000000000000000 PUSH28 0xFFFFFFFFFFFFFFFFFFFFFFFFFFFFFFFFFFFFFFFFFFFFFFFFFFFFFFFF NOT AND DUP3 PUSH28 0xFFFFFFFFFFFFFFFFFFFFFFFFFFFFFFFFFFFFFFFFFFFFFFFFFFFFFFFF NOT AND EQ JUMPDEST DUP1 PUSH2 0x314 JUMPI POP PUSH32 0x1626BA7E00000000000000000000000000000000000000000000000000000000 PUSH28 0xFFFFFFFFFFFFFFFFFFFFFFFFFFFFFFFFFFFFFFFFFFFFFFFFFFFFFFFF NOT AND DUP3 PUSH28 0xFFFFFFFFFFFFFFFFFFFFFFFFFFFFFFFFFFFFFFFFFFFFFFFFFFFFFFFF NOT AND EQ JUMPDEST SWAP1 POP SWAP2 SWAP1 POP JUMP JUMPDEST PUSH0 PUSH0 PUSH2 0x32F PUSH2 0x328 PUSH2 0x4AC JUMP JUMPDEST DUP6 DUP6 PUSH2 0x56C JUMP JUMPDEST SWAP1 POP DUP1 ISZERO PUSH2 0x347 JUMPI PUSH4 0x1626BA7E PUSH1 0xE0 SHL SWAP2 POP POP PUSH2 0x34F JUMP JUMPDEST PUSH0 PUSH1 0xE0 SHL SWAP2 POP POP JUMPDEST SWAP3 SWAP2 POP POP JUMP JUMPDEST PUSH1 0x60 PUSH2 0x360 CALLER PUSH2 0x618 JUMP JUMPDEST PUSH2 0x39F JUMPI PUSH1 0x40 MLOAD PUSH32 0x8C379A000000000000000000000000000000000000000000000000000000000 DUP2 MSTORE PUSH1 0x4 ADD PUSH2 0x396 SWAP1 PUSH2 0xF3A JUMP JUMPDEST PUSH1 0x40 MLOAD DUP1 SWAP2 SUB SWAP1 REVERT JUMPDEST PUSH0 DUP3 PUSH1 0xFF AND EQ PUSH2 0x3E4 JUMPI PUSH1 0x40 MLOAD PUSH32 0x8C379A000000000000000000000000000000000000000000000000000000000 DUP2 MSTORE PUSH1 0x4 ADD PUSH2 0x3DB SWAP1 PUSH2 0xFC8 JUMP JUMPDEST PUSH1 0x40 MLOAD DUP1 SWAP2 SUB SWAP1 REVERT JUMPDEST PUSH0 PUSH0 DUP2 SLOAD PUSH2 0x3F1 SWAP1 PUSH2 0x1013 JUMP JUMPDEST SWAP2 SWAP1 POP DUP2 SWAP1 SSTORE POP PUSH0 DUP7 PUSH20 0xFFFFFFFFFFFFFFFFFFFFFFFFFFFFFFFFFFFFFFFF AND DUP7 DUP7 DUP7 PUSH1 0x40 MLOAD PUSH2 0x421 SWAP3 SWAP2 SWAP1 PUSH2 0x1088 JUMP JUMPDEST PUSH0 PUSH1 0x40 MLOAD DUP1 DUP4 SUB DUP2 DUP6 DUP8 GAS CALL SWAP3 POP POP POP RETURNDATASIZE DUP1 PUSH0 DUP2 EQ PUSH2 0x45B JUMPI PUSH1 0x40 MLOAD SWAP2 POP PUSH1 0x1F NOT PUSH1 0x3F RETURNDATASIZE ADD AND DUP3 ADD PUSH1 0x40 MSTORE RETURNDATASIZE DUP3 MSTORE RETURNDATASIZE PUSH0 PUSH1 0x20 DUP5 ADD RETURNDATACOPY PUSH2 0x460 JUMP JUMPDEST PUSH1 0x60 SWAP2 POP JUMPDEST POP DUP1 SWAP4 POP DUP2 SWAP3 POP POP POP DUP1 PUSH2 0x476 JUMPI RETURNDATASIZE PUSH0 PUSH0 RETURNDATACOPY RETURNDATASIZE PUSH0 REVERT JUMPDEST POP SWAP6 SWAP5 POP POP POP POP POP JUMP JUMPDEST PUSH0 PUSH2 0x48A DUP5 PUSH2 0x618 JUMP JUMPDEST ISZERO PUSH2 0x49E JUMPI PUSH4 0x1626BA7E PUSH1 0xE0 SHL SWAP1 POP PUSH2 0x4A5 JUMP JUMPDEST PUSH0 PUSH1 0xE0 SHL SWAP1 POP JUMPDEST SWAP4 SWAP3 POP POP POP JUMP JUMPDEST PUSH0 PUSH0 PUSH0 PUSH0 PUSH2 0x4B8 PUSH2 0x556 JUMP JUMPDEST SWAP3 POP SWAP3 POP SWAP3 POP CHAINID DUP4 EQ PUSH2 0x4D0 JUMPI PUSH0 SWAP4 POP POP POP POP PUSH2 0x54E JUMP JUMPDEST DUP2 PUSH20 0xFFFFFFFFFFFFFFFFFFFFFFFFFFFFFFFFFFFFFFFF AND PUSH4 0x6352211E DUP3 PUSH1 0x40 MLOAD DUP3 PUSH4 0xFFFFFFFF AND PUSH1 0xE0 SHL DUP2 MSTORE PUSH1 0x4 ADD PUSH2 0x509 SWAP2 SWAP1 PUSH2 0xE92 JUMP JUMPDEST PUSH1 0x20 PUSH1 0x40 MLOAD DUP1 DUP4 SUB DUP2 DUP7 GAS STATICCALL ISZERO DUP1 ISZERO PUSH2 0x524 JUMPI RETURNDATASIZE PUSH0 PUSH0 RETURNDATACOPY RETURNDATASIZE PUSH0 REVERT JUMPDEST POP POP POP POP PUSH1 0x40 MLOAD RETURNDATASIZE PUSH1 0x1F NOT PUSH1 0x1F DUP3 ADD AND DUP3 ADD DUP1 PUSH1 0x40 MSTORE POP DUP2 ADD SWAP1 PUSH2 0x548 SWAP2 SWAP1 PUSH2 0x10B4 JUMP JUMPDEST SWAP4 POP POP POP POP JUMPDEST SWAP1 JUMP JUMPDEST PUSH0 SLOAD DUP2 JUMP JUMPDEST PUSH0 PUSH0 PUSH0 PUSH2 0x561 PUSH2 0x656 JUMP JUMPDEST SWAP3 POP SWAP3 POP SWAP3 POP SWAP1 SWAP2 SWAP3 JUMP JUMPDEST PUSH0 PUSH0 DUP5 PUSH20 0xFFFFFFFFFFFFFFFFFFFFFFFFFFFFFFFFFFFFFFFF AND EXTCODESIZE SUB PUSH2 0x603 JUMPI PUSH0 PUSH0 PUSH2 0x597 DUP6 DUP6 PUSH2 0x689 JUMP JUMPDEST POP SWAP2 POP SWAP2 POP PUSH0 PUSH1 0x3 DUP2 GT ISZERO PUSH2 0x5AF JUMPI PUSH2 0x5AE PUSH2 0x10DF JUMP JUMPDEST JUMPDEST DUP2 PUSH1 0x3 DUP2 GT ISZERO PUSH2 0x5C2 JUMPI PUSH2 0x5C1 PUSH2 0x10DF JUMP JUMPDEST JUMPDEST EQ DUP1 ISZERO PUSH2 0x5FA JUMPI POP DUP6 PUSH20 0xFFFFFFFFFFFFFFFFFFFFFFFFFFFFFFFFFFFFFFFF AND DUP3 PUSH20 0xFFFFFFFFFFFFFFFFFFFFFFFFFFFFFFFFFFFFFFFF AND EQ JUMPDEST SWAP3 POP POP POP PUSH2 0x611 JUMP JUMPDEST PUSH2 0x60E DUP5 DUP5 DUP5 PUSH2 0x6DE JUMP JUMPDEST SWAP1 POP JUMPDEST SWAP4 SWAP3 POP POP POP JUMP JUMPDEST PUSH0 PUSH2 0x621 PUSH2 0x4AC JUMP JUMPDEST PUSH20 0xFFFFFFFFFFFFFFFFFFFFFFFFFFFFFFFFFFFFFFFF AND DUP3 PUSH20 0xFFFFFFFFFFFFFFFFFFFFFFFFFFFFFFFFFFFFFFFF AND EQ SWAP1 POP SWAP2 SWAP1 POP JUMP JUMPDEST PUSH0 PUSH0 PUSH0 PUSH0 ADDRESS PUSH20 0xFFFFFFFFFFFFFFFFFFFFFFFFFFFFFFFFFFFFFFFF AND EXTCODESIZE SWAP1 POP PUSH2 0x67D DUP2 PUSH2 0x7FD JUMP JUMPDEST SWAP4 POP SWAP4 POP SWAP4 POP POP SWAP1 SWAP2 SWAP3 JUMP JUMPDEST PUSH0 PUSH0 PUSH0 PUSH1 0x41 DUP5 MLOAD SUB PUSH2 0x6C9 JUMPI PUSH0 PUSH0 PUSH0 PUSH1 0x20 DUP8 ADD MLOAD SWAP3 POP PUSH1 0x40 DUP8 ADD MLOAD SWAP2 POP PUSH1 0x60 DUP8 ADD MLOAD PUSH0 BYTE SWAP1 POP PUSH2 0x6BB DUP9 DUP3 DUP6 DUP6 PUSH2 0x83E JUMP JUMPDEST SWAP6 POP SWAP6 POP SWAP6 POP POP POP POP PUSH2 0x6D7 JUMP JUMPDEST PUSH0 PUSH1 0x2 DUP6 MLOAD PUSH0 SHL SWAP3 POP SWAP3 POP SWAP3 POP JUMPDEST SWAP3 POP SWAP3 POP SWAP3 JUMP JUMPDEST PUSH0 PUSH0 PUSH0 DUP6 PUSH20 0xFFFFFFFFFFFFFFFFFFFFFFFFFFFFFFFFFFFFFFFF AND DUP6 DUP6 PUSH1 0x40 MLOAD PUSH1 0x24 ADD PUSH2 0x70B SWAP3 SWAP2 SWAP1 PUSH2 0x111B JUMP JUMPDEST PUSH1 0x40 MLOAD PUSH1 0x20 DUP2 DUP4 SUB SUB DUP2 MSTORE SWAP1 PUSH1 0x40 MSTORE PUSH4 0x1626BA7E PUSH1 0xE0 SHL PUSH1 0x20 DUP3 ADD DUP1 MLOAD PUSH28 0xFFFFFFFFFFFFFFFFFFFFFFFFFFFFFFFFFFFFFFFFFFFFFFFFFFFFFFFF DUP4 DUP2 DUP4 AND OR DUP4 MSTORE POP POP POP POP PUSH1 0x40 MLOAD PUSH2 0x75D SWAP2 SWAP1 PUSH2 0x1179 JUMP JUMPDEST PUSH0 PUSH1 0x40 MLOAD DUP1 DUP4 SUB DUP2 DUP6 GAS STATICCALL SWAP2 POP POP RETURNDATASIZE DUP1 PUSH0 DUP2 EQ PUSH2 0x795 JUMPI PUSH1 0x40 MLOAD SWAP2 POP PUSH1 0x1F NOT PUSH1 0x3F RETURNDATASIZE ADD AND DUP3 ADD PUSH1 0x40 MSTORE RETURNDATASIZE DUP3 MSTORE RETURNDATASIZE PUSH0 PUSH1 0x20 DUP5 ADD RETURNDATACOPY PUSH2 0x79A JUMP JUMPDEST PUSH1 0x60 SWAP2 POP JUMPDEST POP SWAP2 POP SWAP2 POP DUP2 DUP1 ISZERO PUSH2 0x7AE JUMPI POP PUSH1 0x20 DUP2 MLOAD LT ISZERO JUMPDEST DUP1 ISZERO PUSH2 0x7F2 JUMPI POP PUSH4 0x1626BA7E PUSH1 0xE0 SHL PUSH28 0xFFFFFFFFFFFFFFFFFFFFFFFFFFFFFFFFFFFFFFFFFFFFFFFFFFFFFFFF NOT AND DUP2 DUP1 PUSH1 0x20 ADD SWAP1 MLOAD DUP2 ADD SWAP1 PUSH2 0x7F0 SWAP2 SWAP1 PUSH2 0x11A3 JUMP JUMPDEST EQ JUMPDEST SWAP3 POP POP POP SWAP4 SWAP3 POP POP POP JUMP JUMPDEST PUSH0 PUSH0 PUSH0 PUSH0 PUSH1 0x2D DUP6 PUSH2 0x80E SWAP2 SWAP1 PUSH2 0x11CE JUMP JUMPDEST SWAP1 POP PUSH1 0x20 PUSH1 0x60 DUP7 SUB PUSH0 ADDRESS EXTCODECOPY PUSH0 MLOAD SWAP4 POP PUSH1 0x20 PUSH1 0x40 DUP7 SUB PUSH0 ADDRESS EXTCODECOPY PUSH0 MLOAD SWAP3 POP PUSH1 0x20 DUP1 DUP7 SUB PUSH0 ADDRESS EXTCODECOPY PUSH0 MLOAD SWAP2 POP POP SWAP2 SWAP4 SWAP1 SWAP3 POP JUMP JUMPDEST PUSH0 PUSH0 PUSH0 PUSH32 0x7FFFFFFFFFFFFFFFFFFFFFFFFFFFFFFF5D576E7357A4501DDFE92F46681B20A0 DUP5 PUSH0 SHR GT ISZERO PUSH2 0x87A JUMPI PUSH0 PUSH1 0x3 DUP6 SWAP3 POP SWAP3 POP SWAP3 POP PUSH2 0x91B JUMP JUMPDEST PUSH0 PUSH1 0x1 DUP9 DUP9 DUP9 DUP9 PUSH1 0x40 MLOAD PUSH0 DUP2 MSTORE PUSH1 0x20 ADD PUSH1 0x40 MSTORE PUSH1 0x40 MLOAD PUSH2 0x89D SWAP5 SWAP4 SWAP3 SWAP2 SWAP1 PUSH2 0x1210 JUMP JUMPDEST PUSH1 0x20 PUSH1 0x40 MLOAD PUSH1 0x20 DUP2 SUB SWAP1 DUP1 DUP5 SUB SWAP1 DUP6 GAS STATICCALL ISZERO DUP1 ISZERO PUSH2 0x8BD JUMPI RETURNDATASIZE PUSH0 PUSH0 RETURNDATACOPY RETURNDATASIZE PUSH0 REVERT JUMPDEST POP POP POP PUSH1 0x20 PUSH1 0x40 MLOAD SUB MLOAD SWAP1 POP PUSH0 PUSH20 0xFFFFFFFFFFFFFFFFFFFFFFFFFFFFFFFFFFFFFFFF AND DUP2 PUSH20 0xFFFFFFFFFFFFFFFFFFFFFFFFFFFFFFFFFFFFFFFF AND SUB PUSH2 0x90E JUMPI PUSH0 PUSH1 0x1 PUSH0 PUSH0 SHL SWAP4 POP SWAP4 POP SWAP4 POP POP PUSH2 0x91B JUMP JUMPDEST DUP1 PUSH0 PUSH0 PUSH0 SHL SWAP4 POP SWAP4 POP SWAP4 POP POP JUMPDEST SWAP5 POP SWAP5 POP SWAP5 SWAP2 POP POP JUMP JUMPDEST PUSH0 PUSH1 0x40 MLOAD SWAP1 POP SWAP1 JUMP JUMPDEST PUSH0 PUSH0 REVERT JUMPDEST PUSH0 PUSH0 REVERT JUMPDEST PUSH0 PUSH32 0xFFFFFFFF00000000000000000000000000000000000000000000000000000000 DUP3 AND SWAP1 POP SWAP2 SWAP1 POP JUMP JUMPDEST PUSH2 0x96A DUP2 PUSH2 0x936 JUMP JUMPDEST DUP2 EQ PUSH2 0x974 JUMPI PUSH0 PUSH0 REVERT JUMPDEST POP JUMP JUMPDEST PUSH0 DUP2 CALLDATALOAD SWAP1 POP PUSH2 0x985 DUP2 PUSH2 0x961 JUMP JUMPDEST SWAP3 SWAP2 POP POP JUMP JUMPDEST PUSH0 PUSH1 0x20 DUP3 DUP5 SUB SLT ISZERO PUSH2 0x9A0 JUMPI PUSH2 0x99F PUSH2 0x92E JUMP JUMPDEST JUMPDEST PUSH0 PUSH2 0x9AD DUP5 DUP3 DUP6 ADD PUSH2 0x977 JUMP JUMPDEST SWAP2 POP POP SWAP3 SWAP2 POP POP JUMP JUMPDEST PUSH0 DUP2 ISZERO ISZERO SWAP1 POP SWAP2 SWAP1 POP JUMP JUMPDEST PUSH2 0x9CA DUP2 PUSH2 0x9B6 JUMP JUMPDEST DUP3 MSTORE POP POP JUMP JUMPDEST PUSH0 PUSH1 0x20 DUP3 ADD SWAP1 POP PUSH2 0x9E3 PUSH0 DUP4 ADD DUP5 PUSH2 0x9C1 JUMP JUMPDEST SWAP3 SWAP2 POP POP JUMP JUMPDEST PUSH0 DUP2 SWAP1 POP SWAP2 SWAP1 POP JUMP JUMPDEST PUSH2 0x9FB DUP2 PUSH2 0x9E9 JUMP JUMPDEST DUP2 EQ PUSH2 0xA05 JUMPI PUSH0 PUSH0 REVERT JUMPDEST POP JUMP JUMPDEST PUSH0 DUP2 CALLDATALOAD SWAP1 POP PUSH2 0xA16 DUP2 PUSH2 0x9F2 JUMP JUMPDEST SWAP3 SWAP2 POP POP JUMP JUMPDEST PUSH0 PUSH0 REVERT JUMPDEST PUSH0 PUSH0 REVERT JUMPDEST PUSH0 PUSH1 0x1F NOT PUSH1 0x1F DUP4 ADD AND SWAP1 POP SWAP2 SWAP1 POP JUMP JUMPDEST PUSH32 0x4E487B7100000000000000000000000000000000000000000000000000000000 PUSH0 MSTORE PUSH1 0x41 PUSH1 0x4 MSTORE PUSH1 0x24 PUSH0 REVERT JUMPDEST PUSH2 0xA6A DUP3 PUSH2 0xA24 JUMP JUMPDEST DUP2 ADD DUP2 DUP2 LT PUSH8 0xFFFFFFFFFFFFFFFF DUP3 GT OR ISZERO PUSH2 0xA89 JUMPI PUSH2 0xA88 PUSH2 0xA34 JUMP JUMPDEST JUMPDEST DUP1 PUSH1 0x40 MSTORE POP POP POP JUMP JUMPDEST PUSH0 PUSH2 0xA9B PUSH2 0x925 JUMP JUMPDEST SWAP1 POP PUSH2 0xAA7 DUP3 DUP3 PUSH2 0xA61 JUMP JUMPDEST SWAP2 SWAP1 POP JUMP JUMPDEST PUSH0 PUSH8 0xFFFFFFFFFFFFFFFF DUP3 GT ISZERO PUSH2 0xAC6 JUMPI PUSH2 0xAC5 PUSH2 0xA34 JUMP JUMPDEST JUMPDEST PUSH2 0xACF DUP3 PUSH2 0xA24 JUMP JUMPDEST SWAP1 POP PUSH1 0x20 DUP2 ADD SWAP1 POP SWAP2 SWAP1 POP JUMP JUMPDEST DUP3 DUP2 DUP4 CALLDATACOPY PUSH0 DUP4 DUP4 ADD MSTORE POP POP POP JUMP JUMPDEST PUSH0 PUSH2 0xAFC PUSH2 0xAF7 DUP5 PUSH2 0xAAC JUMP JUMPDEST PUSH2 0xA92 JUMP JUMPDEST SWAP1 POP DUP3 DUP2 MSTORE PUSH1 0x20 DUP2 ADD DUP5 DUP5 DUP5 ADD GT ISZERO PUSH2 0xB18 JUMPI PUSH2 0xB17 PUSH2 0xA20 JUMP JUMPDEST JUMPDEST PUSH2 0xB23 DUP5 DUP3 DUP6 PUSH2 0xADC JUMP JUMPDEST POP SWAP4 SWAP3 POP POP POP JUMP JUMPDEST PUSH0 DUP3 PUSH1 0x1F DUP4 ADD SLT PUSH2 0xB3F JUMPI PUSH2 0xB3E PUSH2 0xA1C JUMP JUMPDEST JUMPDEST DUP2 CALLDATALOAD PUSH2 0xB4F DUP5 DUP3 PUSH1 0x20 DUP7 ADD PUSH2 0xAEA JUMP JUMPDEST SWAP2 POP POP SWAP3 SWAP2 POP POP JUMP JUMPDEST PUSH0 PUSH0 PUSH1 0x40 DUP4 DUP6 SUB SLT ISZERO PUSH2 0xB6E JUMPI PUSH2 0xB6D PUSH2 0x92E JUMP JUMPDEST JUMPDEST PUSH0 PUSH2 0xB7B DUP6 DUP3 DUP7 ADD PUSH2 0xA08 JUMP JUMPDEST SWAP3 POP POP PUSH1 0x20 DUP4 ADD CALLDATALOAD PUSH8 0xFFFFFFFFFFFFFFFF DUP2 GT ISZERO PUSH2 0xB9C JUMPI PUSH2 0xB9B PUSH2 0x932 JUMP JUMPDEST JUMPDEST PUSH2 0xBA8 DUP6 DUP3 DUP7 ADD PUSH2 0xB2B JUMP JUMPDEST SWAP2 POP POP SWAP3 POP SWAP3 SWAP1 POP JUMP JUMPDEST PUSH2 0xBBB DUP2 PUSH2 0x936 JUMP JUMPDEST DUP3 MSTORE POP POP JUMP JUMPDEST PUSH0 PUSH1 0x20 DUP3 ADD SWAP1 POP PUSH2 0xBD4 PUSH0 DUP4 ADD DUP5 PUSH2 0xBB2 JUMP JUMPDEST SWAP3 SWAP2 POP POP JUMP JUMPDEST PUSH0 PUSH20 0xFFFFFFFFFFFFFFFFFFFFFFFFFFFFFFFFFFFFFFFF DUP3 AND SWAP1 POP SWAP2 SWAP1 POP JUMP JUMPDEST PUSH0 PUSH2 0xC03 DUP3 PUSH2 0xBDA JUMP JUMPDEST SWAP1 POP SWAP2 SWAP1 POP JUMP JUMPDEST PUSH2 0xC13 DUP2 PUSH2 0xBF9 JUMP JUMPDEST DUP2 EQ PUSH2 0xC1D JUMPI PUSH0 PUSH0 REVERT JUMPDEST POP JUMP JUMPDEST PUSH0 DUP2 CALLDATALOAD SWAP1 POP PUSH2 0xC2E DUP2 PUSH2 0xC0A JUMP JUMPDEST SWAP3 SWAP2 POP POP JUMP JUMPDEST PUSH0 DUP2 SWAP1 POP SWAP2 SWAP1 POP JUMP JUMPDEST PUSH2 0xC46 DUP2 PUSH2 0xC34 JUMP JUMPDEST DUP2 EQ PUSH2 0xC50 JUMPI PUSH0 PUSH0 REVERT JUMPDEST POP JUMP JUMPDEST PUSH0 DUP2 CALLDATALOAD SWAP1 POP PUSH2 0xC61 DUP2 PUSH2 0xC3D JUMP JUMPDEST SWAP3 SWAP2 POP POP JUMP JUMPDEST PUSH0 PUSH0 REVERT JUMPDEST PUSH0 PUSH0 REVERT JUMPDEST PUSH0 PUSH0 DUP4 PUSH1 0x1F DUP5 ADD SLT PUSH2 0xC84 JUMPI PUSH2 0xC83 PUSH2 0xA1C JUMP JUMPDEST JUMPDEST DUP3 CALLDATALOAD SWAP1 POP PUSH8 0xFFFFFFFFFFFFFFFF DUP2 GT ISZERO PUSH2 0xCA1 JUMPI PUSH2 0xCA0 PUSH2 0xC67 JUMP JUMPDEST JUMPDEST PUSH1 0x20 DUP4 ADD SWAP2 POP DUP4 PUSH1 0x1 DUP3 MUL DUP4 ADD GT ISZERO PUSH2 0xCBD JUMPI PUSH2 0xCBC PUSH2 0xC6B JUMP JUMPDEST JUMPDEST SWAP3 POP SWAP3 SWAP1 POP JUMP JUMPDEST PUSH0 PUSH1 0xFF DUP3 AND SWAP1 POP SWAP2 SWAP1 POP JUMP JUMPDEST PUSH2 0xCD9 DUP2 PUSH2 0xCC4 JUMP JUMPDEST DUP2 EQ PUSH2 0xCE3 JUMPI PUSH0 PUSH0 REVERT JUMPDEST POP JUMP JUMPDEST PUSH0 DUP2 CALLDATALOAD SWAP1 POP PUSH2 0xCF4 DUP2 PUSH2 0xCD0 JUMP JUMPDEST SWAP3 SWAP2 POP POP JUMP JUMPDEST PUSH0 PUSH0 PUSH0 PUSH0 PUSH0 PUSH1 0x80 DUP7 DUP9 SUB SLT ISZERO PUSH2 0xD13 JUMPI PUSH2 0xD12 PUSH2 0x92E JUMP JUMPDEST JUMPDEST PUSH0 PUSH2 0xD20 DUP9 DUP3 DUP10 ADD PUSH2 0xC20 JUMP JUMPDEST SWAP6 POP POP PUSH1 0x20 PUSH2 0xD31 DUP9 DUP3 DUP10 ADD PUSH2 0xC53 JUMP JUMPDEST SWAP5 POP POP PUSH1 0x40 DUP7 ADD CALLDATALOAD PUSH8 0xFFFFFFFFFFFFFFFF DUP2 GT ISZERO PUSH2 0xD52 JUMPI PUSH2 0xD51 PUSH2 0x932 JUMP JUMPDEST JUMPDEST PUSH2 0xD5E DUP9 DUP3 DUP10 ADD PUSH2 0xC6F JUMP JUMPDEST SWAP4 POP SWAP4 POP POP PUSH1 0x60 PUSH2 0xD71 DUP9 DUP3 DUP10 ADD PUSH2 0xCE6 JUMP JUMPDEST SWAP2 POP POP SWAP3 SWAP6 POP SWAP3 SWAP6 SWAP1 SWAP4 POP JUMP JUMPDEST PUSH0 DUP2 MLOAD SWAP1 POP SWAP2 SWAP1 POP JUMP JUMPDEST PUSH0 DUP3 DUP3 MSTORE PUSH1 0x20 DUP3 ADD SWAP1 POP SWAP3 SWAP2 POP POP JUMP JUMPDEST DUP3 DUP2 DUP4 MCOPY PUSH0 DUP4 DUP4 ADD MSTORE POP POP POP JUMP JUMPDEST PUSH0 PUSH2 0xDB0 DUP3 PUSH2 0xD7E JUMP JUMPDEST PUSH2 0xDBA DUP2 DUP6 PUSH2 0xD88 JUMP JUMPDEST SWAP4 POP PUSH2 0xDCA DUP2 DUP6 PUSH1 0x20 DUP7 ADD PUSH2 0xD98 JUMP JUMPDEST PUSH2 0xDD3 DUP2 PUSH2 0xA24 JUMP JUMPDEST DUP5 ADD SWAP2 POP POP SWAP3 SWAP2 POP POP JUMP JUMPDEST PUSH0 PUSH1 0x20 DUP3 ADD SWAP1 POP DUP2 DUP2 SUB PUSH0 DUP4 ADD MSTORE PUSH2 0xDF6 DUP2 DUP5 PUSH2 0xDA6 JUMP JUMPDEST SWAP1 POP SWAP3 SWAP2 POP POP JUMP JUMPDEST PUSH0 PUSH0 PUSH0 PUSH1 0x40 DUP5 DUP7 SUB SLT ISZERO PUSH2 0xE15 JUMPI PUSH2 0xE14 PUSH2 0x92E JUMP JUMPDEST JUMPDEST PUSH0 PUSH2 0xE22 DUP7 DUP3 DUP8 ADD PUSH2 0xC20 JUMP JUMPDEST SWAP4 POP POP PUSH1 0x20 DUP5 ADD CALLDATALOAD PUSH8 0xFFFFFFFFFFFFFFFF DUP2 GT ISZERO PUSH2 0xE43 JUMPI PUSH2 0xE42 PUSH2 0x932 JUMP JUMPDEST JUMPDEST PUSH2 0xE4F DUP7 DUP3 DUP8 ADD PUSH2 0xC6F JUMP JUMPDEST SWAP3 POP SWAP3 POP POP SWAP3 POP SWAP3 POP SWAP3 JUMP JUMPDEST PUSH2 0xE64 DUP2 PUSH2 0xBF9 JUMP JUMPDEST DUP3 MSTORE POP POP JUMP JUMPDEST PUSH0 PUSH1 0x20 DUP3 ADD SWAP1 POP PUSH2 0xE7D PUSH0 DUP4 ADD DUP5 PUSH2 0xE5B JUMP JUMPDEST SWAP3 SWAP2 POP POP JUMP JUMPDEST PUSH2 0xE8C DUP2 PUSH2 0xC34 JUMP JUMPDEST DUP3 MSTORE POP POP JUMP JUMPDEST PUSH0 PUSH1 0x20 DUP3 ADD SWAP1 POP PUSH2 0xEA5 PUSH0 DUP4 ADD DUP5 PUSH2 0xE83 JUMP JUMPDEST SWAP3 SWAP2 POP POP JUMP JUMPDEST PUSH0 PUSH1 0x60 DUP3 ADD SWAP1 POP PUSH2 0xEBE PUSH0 DUP4 ADD DUP7 PUSH2 0xE83 JUMP JUMPDEST PUSH2 0xECB PUSH1 0x20 DUP4 ADD DUP6 PUSH2 0xE5B JUMP JUMPDEST PUSH2 0xED8 PUSH1 0x40 DUP4 ADD DUP5 PUSH2 0xE83 JUMP JUMPDEST SWAP5 SWAP4 POP POP POP POP JUMP JUMPDEST PUSH0 DUP3 DUP3 MSTORE PUSH1 0x20 DUP3 ADD SWAP1 POP SWAP3 SWAP2 POP POP JUMP JUMPDEST PUSH32 0x496E76616C6964207369676E6572000000000000000000000000000000000000 PUSH0 DUP3 ADD MSTORE POP JUMP JUMPDEST PUSH0 PUSH2 0xF24 PUSH1 0xE DUP4 PUSH2 0xEE0 JUMP JUMPDEST SWAP2 POP PUSH2 0xF2F DUP3 PUSH2 0xEF0 JUMP JUMPDEST PUSH1 0x20 DUP3 ADD SWAP1 POP SWAP2 SWAP1 POP JUMP JUMPDEST PUSH0 PUSH1 0x20 DUP3 ADD SWAP1 POP DUP2 DUP2 SUB PUSH0 DUP4 ADD MSTORE PUSH2 0xF51 DUP2 PUSH2 0xF18 JUMP JUMPDEST SWAP1 POP SWAP2 SWAP1 POP JUMP JUMPDEST PUSH32 0x4F6E6C792063616C6C206F7065726174696F6E732061726520737570706F7274 PUSH0 DUP3 ADD MSTORE PUSH32 0x6564000000000000000000000000000000000000000000000000000000000000 PUSH1 0x20 DUP3 ADD MSTORE POP JUMP JUMPDEST PUSH0 PUSH2 0xFB2 PUSH1 0x22 DUP4 PUSH2 0xEE0 JUMP JUMPDEST SWAP2 POP PUSH2 0xFBD DUP3 PUSH2 0xF58 JUMP JUMPDEST PUSH1 0x40 DUP3 ADD SWAP1 POP SWAP2 SWAP1 POP JUMP JUMPDEST PUSH0 PUSH1 0x20 DUP3 ADD SWAP1 POP DUP2 DUP2 SUB PUSH0 DUP4 ADD MSTORE PUSH2 0xFDF DUP2 PUSH2 0xFA6 JUMP JUMPDEST SWAP1 POP SWAP2 SWAP1 POP JUMP JUMPDEST PUSH32 0x4E487B7100000000000000000000000000000000000000000000000000000000 PUSH0 MSTORE PUSH1 0x11 PUSH1 0x4 MSTORE PUSH1 0x24 PUSH0 REVERT JUMPDEST PUSH0 PUSH2 0x101D DUP3 PUSH2 0xC34 JUMP JUMPDEST SWAP2 POP PUSH32 0xFFFFFFFFFFFFFFFFFFFFFFFFFFFFFFFFFFFFFFFFFFFFFFFFFFFFFFFFFFFFFFFF DUP3 SUB PUSH2 0x104F JUMPI PUSH2 0x104E PUSH2 0xFE6 JUMP JUMPDEST JUMPDEST PUSH1 0x1 DUP3 ADD SWAP1 POP SWAP2 SWAP1 POP JUMP JUMPDEST PUSH0 DUP2 SWAP1 POP SWAP3 SWAP2 POP POP JUMP JUMPDEST PUSH0 PUSH2 0x106F DUP4 DUP6 PUSH2 0x105A JUMP JUMPDEST SWAP4 POP PUSH2 0x107C DUP4 DUP6 DUP5 PUSH2 0xADC JUMP JUMPDEST DUP3 DUP5 ADD SWAP1 POP SWAP4 SWAP3 POP POP POP JUMP JUMPDEST PUSH0 PUSH2 0x1094 DUP3 DUP5 DUP7 PUSH2 0x1064 JUMP JUMPDEST SWAP2 POP DUP2 SWAP1 POP SWAP4 SWAP3 POP POP POP JUMP JUMPDEST PUSH0 DUP2 MLOAD SWAP1 POP PUSH2 0x10AE DUP2 PUSH2 0xC0A JUMP JUMPDEST SWAP3 SWAP2 POP POP JUMP JUMPDEST PUSH0 PUSH1 0x20 DUP3 DUP5 SUB SLT ISZERO PUSH2 0x10C9 JUMPI PUSH2 0x10C8 PUSH2 0x92E JUMP JUMPDEST JUMPDEST PUSH0 PUSH2 0x10D6 DUP5 DUP3 DUP6 ADD PUSH2 0x10A0 JUMP JUMPDEST SWAP2 POP POP SWAP3 SWAP2 POP POP JUMP JUMPDEST PUSH32 0x4E487B7100000000000000000000000000000000000000000000000000000000 PUSH0 MSTORE PUSH1 0x21 PUSH1 0x4 MSTORE PUSH1 0x24 PUSH0 REVERT JUMPDEST PUSH2 0x1115 DUP2 PUSH2 0x9E9 JUMP JUMPDEST DUP3 MSTORE POP POP JUMP JUMPDEST PUSH0 PUSH1 0x40 DUP3 ADD SWAP1 POP PUSH2 0x112E PUSH0 DUP4 ADD DUP6 PUSH2 0x110C JUMP JUMPDEST DUP2 DUP2 SUB PUSH1 0x20 DUP4 ADD MSTORE PUSH2 0x1140 DUP2 DUP5 PUSH2 0xDA6 JUMP JUMPDEST SWAP1 POP SWAP4 SWAP3 POP POP POP JUMP JUMPDEST PUSH0 PUSH2 0x1153 DUP3 PUSH2 0xD7E JUMP JUMPDEST PUSH2 0x115D DUP2 DUP6 PUSH2 0x105A JUMP JUMPDEST SWAP4 POP PUSH2 0x116D DUP2 DUP6 PUSH1 0x20 DUP7 ADD PUSH2 0xD98 JUMP JUMPDEST DUP1 DUP5 ADD SWAP2 POP POP SWAP3 SWAP2 POP POP JUMP JUMPDEST PUSH0 PUSH2 0x1184 DUP3 DUP5 PUSH2 0x1149 JUMP JUMPDEST SWAP2 POP DUP2 SWAP1 POP SWAP3 SWAP2 POP POP JUMP JUMPDEST PUSH0 DUP2 MLOAD SWAP1 POP PUSH2 0x119D DUP2 PUSH2 0x9F2 JUMP JUMPDEST SWAP3 SWAP2 POP POP JUMP JUMPDEST PUSH0 PUSH1 0x20 DUP3 DUP5 SUB SLT ISZERO PUSH2 0x11B8 JUMPI PUSH2 0x11B7 PUSH2 0x92E JUMP JUMPDEST JUMPDEST PUSH0 PUSH2 0x11C5 DUP5 DUP3 DUP6 ADD PUSH2 0x118F JUMP JUMPDEST SWAP2 POP POP SWAP3 SWAP2 POP POP JUMP JUMPDEST PUSH0 PUSH2 0x11D8 DUP3 PUSH2 0xC34 JUMP JUMPDEST SWAP2 POP PUSH2 0x11E3 DUP4 PUSH2 0xC34 JUMP JUMPDEST SWAP3 POP DUP3 DUP3 SUB SWAP1 POP DUP2 DUP2 GT ISZERO PUSH2 0x11FB JUMPI PUSH2 0x11FA PUSH2 0xFE6 JUMP JUMPDEST JUMPDEST SWAP3 SWAP2 POP POP JUMP JUMPDEST PUSH2 0x120A DUP2 PUSH2 0xCC4 JUMP JUMPDEST DUP3 MSTORE POP POP JUMP JUMPDEST PUSH0 PUSH1 0x80 DUP3 ADD SWAP1 POP PUSH2 0x1223 PUSH0 DUP4 ADD DUP8 PUSH2 0x110C JUMP JUMPDEST PUSH2 0x1230 PUSH1 0x20 DUP4 ADD DUP7 PUSH2 0x1201 JUMP JUMPDEST PUSH2 0x123D PUSH1 0x40 DUP4 ADD DUP6 PUSH2 0x110C JUMP JUMPDEST PUSH2 0x124A PUSH1 0x60 DUP4 ADD DUP5 PUSH2 0x110C JUMP JUMPDEST SWAP6 SWAP5 POP POP POP POP POP JUMP INVALID LOG2 PUSH5 0x6970667358 0x22 SLT KECCAK256 0xEA 0xD6 RETURN 0xA5 0xF EXTCODESIZE 0xE1 0xD7 RETURN 0xB1 PUSH4 0x7B7BC71F ADDMOD SWAP8 BLOBBASEFEE 0xC BLOBBASEFEE PUSH20 0xA57770AC8C72D07AB5964764736F6C634300081C STOP CALLER "},"methodIdentifiers":{"execute(address,uint256,bytes,uint8)":"51945447","isValidSignature(bytes32,bytes)":"1626ba7e","isValidSigner(address,bytes)":"523e3260","owner()":"8da5cb5b","state()":"c19d93fb","supportsInterface(bytes4)":"01ffc9a7","token()":"fc0c546a"}}}}}