{
  "_format": "hh-sol-artifact-1",
  "contractName": "TBAManager",
  "sourceName": "contracts/tba/TBAManager.sol",
  "abi": [
    {
      "inputs": [
        {
          "internalType": "address",
          "name": "_registry",
          "type": "address"
        },
        {
          "internalType": "address",
          "name": "_implementation",
          "type": "address"
        }
      ],
      "stateMutability": "nonpayable",
      "type": "constructor"
    },
    {
      "inputs": [],
      "name": "accountImplementation",
      "outputs": [
        {
          "internalType": "address",
          "name": "",
          "type": "address"
        }
      ],
      "stateMutability": "view",
      "type": "function"
    },
    {
      "inputs": [
        {
          "internalType": "address",
          "name": "tokenContract",
          "type": "address"
        },
        {
          "internalType": "uint256",
          "name": "tokenId",
          "type": "uint256"
        }
      ],
      "name": "createAccount",
      "outputs": [
        {
          "internalType": "address",
          "name": "",
          "type": "address"
        }
      ],
      "stateMutability": "nonpayable",
      "type": "function"
    },
    {
      "inputs": [
        {
          "internalType": "address",
          "name": "tokenContract",
          "type": "address"
        },
        {
          "internalType": "uint256",
          "name": "tokenId",
          "type": "uint256"
        }
      ],
      "name": "getAccount",
      "outputs": [
        {
          "internalType": "address",
          "name": "",
          "type": "address"
        }
      ],
      "stateMutability": "view",
      "type": "function"
    },
    {
      "inputs": [],
      "name": "registry",
      "outputs": [
        {
          "internalType": "contract IERC6551Registry",
          "name": "",
          "type": "address"
        }
      ],
      "stateMutability": "view",
      "type": "function"
    }
  ],
  "bytecode": "0x60c060405234801561000f575f5ffd5b506040516103af3803806103af83398101604081905261002e91610060565b6001600160a01b039182166080521660a052610091565b80516001600160a01b038116811461005b575f5ffd5b919050565b5f5f60408385031215610071575f5ffd5b61007a83610045565b915061008860208401610045565b90509250929050565b60805160a0516102e46100cb5f395f818160530152818160f501526101c501525f818160bc0152818161013b015261020b01526102e45ff3fe608060405234801561000f575f5ffd5b506004361061004a575f3560e01c806311464fbe1461004e5780635fbfb9cf14610091578063670079eb146100a45780637b103999146100b7575b5f5ffd5b6100757f000000000000000000000000000000000000000000000000000000000000000081565b6040516001600160a01b03909116815260200160405180910390f35b61007561009f366004610269565b6100de565b6100756100b2366004610269565b6101ae565b6100757f000000000000000000000000000000000000000000000000000000000000000081565b604051638a54c52f60e01b81526001600160a01b037f0000000000000000000000000000000000000000000000000000000000000000811660048301525f60248301819052466044840152848216606484015260848301849052917f000000000000000000000000000000000000000000000000000000000000000090911690638a54c52f9060a4016020604051808303815f875af1158015610183573d5f5f3e3d5ffd5b505050506040513d601f19601f820116820180604052508101906101a79190610293565b9392505050565b60405163246a002160e01b81526001600160a01b037f0000000000000000000000000000000000000000000000000000000000000000811660048301525f60248301819052466044840152848216606484015260848301849052917f00000000000000000000000000000000000000000000000000000000000000009091169063246a00219060a401602060405180830381865afa158015610183573d5f5f3e3d5ffd5b6001600160a01b0381168114610266575f5ffd5b50565b5f5f6040838503121561027a575f5ffd5b823561028581610252565b946020939093013593505050565b5f602082840312156102a3575f5ffd5b81516101a78161025256fea264697066735822122051716e2a72fa76e616b43c251b84ddc9c95c4ae3b59597135e044958e45dbefc64736f6c634300081c0033",
  "linkReferences": {},
  "deployedLinkReferences": {}
}