{
  "_format": "hh-sol-artifact-1",
  "contractName": "ERC6551Account",
  "sourceName": "contracts/tba/ERC6551Account.sol",
  "abi": [
    {
      "inputs": [
        {
          "internalType": "address",
          "name": "to",
          "type": "address"
        },
        {
          "internalType": "uint256",
          "name": "value",
          "type": "uint256"
        },
        {
          "internalType": "bytes",
          "name": "data",
          "type": "bytes"
        },
        {
          "internalType": "uint8",
          "name": "operation",
          "type": "uint8"
        }
      ],
      "name": "execute",
      "outputs": [
        {
          "internalType": "bytes",
          "name": "result",
          "type": "bytes"
        }
      ],
      "stateMutability": "payable",
      "type": "function"
    },
    {
      "inputs": [
        {
          "internalType": "bytes32",
          "name": "hash",
          "type": "bytes32"
        },
        {
          "internalType": "bytes",
          "name": "signature",
          "type": "bytes"
        }
      ],
      "name": "isValidSignature",
      "outputs": [
        {
          "internalType": "bytes4",
          "name": "magicValue",
          "type": "bytes4"
        }
      ],
      "stateMutability": "view",
      "type": "function"
    },
    {
      "inputs": [
        {
          "internalType": "address",
          "name": "signer",
          "type": "address"
        },
        {
          "internalType": "bytes",
          "name": "",
          "type": "bytes"
        }
      ],
      "name": "isValidSigner",
      "outputs": [
        {
          "internalType": "bytes4",
          "name": "",
          "type": "bytes4"
        }
      ],
      "stateMutability": "view",
      "type": "function"
    },
    {
      "inputs": [],
      "name": "owner",
      "outputs": [
        {
          "internalType": "address",
          "name": "",
          "type": "address"
        }
      ],
      "stateMutability": "view",
      "type": "function"
    },
    {
      "inputs": [],
      "name": "state",
      "outputs": [
        {
          "internalType": "uint256",
          "name": "",
          "type": "uint256"
        }
      ],
      "stateMutability": "view",
      "type": "function"
    },
    {
      "inputs": [
        {
          "internalType": "bytes4",
          "name": "interfaceId",
          "type": "bytes4"
        }
      ],
      "name": "supportsInterface",
      "outputs": [
        {
          "internalType": "bool",
          "name": "",
          "type": "bool"
        }
      ],
      "stateMutability": "pure",
      "type": "function"
    },
    {
      "inputs": [],
      "name": "token",
      "outputs": [
        {
          "internalType": "uint256",
          "name": "",
          "type": "uint256"
        },
        {
          "internalType": "address",
          "name": "",
          "type": "address"
        },
        {
          "internalType": "uint256",
          "name": "",
          "type": "uint256"
        }
      ],
      "stateMutability": "view",
      "type": "function"
    },
    {
      "stateMutability": "payable",
      "type": "receive"
    }
  ],
  "bytecode": "0x6080604052348015600e575f5ffd5b50610a5a8061001c5f395ff3fe608060405260043610610071575f3560e01c8063523e32601161004c578063523e3260146101085780638da5cb5b14610127578063c19d93fb14610153578063fc0c546a14610175575f5ffd5b806301ffc9a71461007c5780631626ba7e146100b057806351945447146100e8575f5ffd5b3661007857005b5f5ffd5b348015610087575f5ffd5b5061009b610096366004610701565b6101ac565b60405190151581526020015b60405180910390f35b3480156100bb575f5ffd5b506100cf6100ca36600461073c565b6101fd565b6040516001600160e01b031990911681526020016100a7565b6100fb6100f6366004610855565b610232565b6040516100a791906108f7565b348015610113575f5ffd5b506100cf610122366004610909565b610366565b348015610132575f5ffd5b5061013b610386565b6040516001600160a01b0390911681526020016100a7565b34801561015e575f5ffd5b506101675f5481565b6040519081526020016100a7565b348015610180575f5ffd5b50610189610417565b604080519384526001600160a01b039092166020840152908201526060016100a7565b5f6001600160e01b031982166301ffc9a760e01b14806101dc57506001600160e01b03198216636faff5f160e01b145b806101f757506001600160e01b03198216630b135d3f60e11b145b92915050565b5f5f61021161020a610386565b858561042d565b905080156102295750630b135d3f60e11b90506101f7565b505f9392505050565b606061023d3361049d565b61027f5760405162461bcd60e51b815260206004820152600e60248201526d24b73b30b634b21039b4b3b732b960911b60448201526064015b60405180910390fd5b60ff8216156102db5760405162461bcd60e51b815260206004820152602260248201527f4f6e6c792063616c6c206f7065726174696f6e732061726520737570706f7274604482015261195960f21b6064820152608401610276565b5f5f81546102e89061096e565b919050819055505f866001600160a01b031686868660405161030b929190610986565b5f6040518083038185875af1925050503d805f8114610345576040519150601f19603f3d011682016040523d82523d5f602084013e61034a565b606091505b50925090508061035c573d5f5f3e3d5ffd5b5095945050505050565b5f6103708461049d565b156102295750630b135d3f60e11b5b9392505050565b5f5f5f5f610392610417565b9250925092504683146103a8575f935050505090565b6040516331a9108f60e11b8152600481018290526001600160a01b03831690636352211e90602401602060405180830381865afa1580156103eb573d5f5f3e3d5ffd5b505050506040513d601f19601f8201168201806040525081019061040f9190610995565b935050505090565b5f5f5f6104226104c1565b925092509250909192565b5f836001600160a01b03163b5f0361048b575f5f61044b85856104db565b5090925090505f816003811115610464576104646109b0565b1480156104825750856001600160a01b0316826001600160a01b0316145b9250505061037f565b610496848484610524565b905061037f565b5f6104a6610386565b6001600160a01b0316826001600160a01b0316149050919050565b5f8080303b6104cf816105fb565b93509350935050909192565b5f5f5f8351604103610512576020840151604085015160608601515f1a61050488828585610639565b95509550955050505061051d565b505081515f91506002905b9250925092565b5f5f5f856001600160a01b031685856040516024016105449291906109c4565b60408051601f198184030181529181526020820180516001600160e01b0316630b135d3f60e11b1790525161057991906109e4565b5f60405180830381855afa9150503d805f81146105b1576040519150601f19603f3d011682016040523d82523d5f602084013e6105b6565b606091505b50915091508180156105ca57506020815110155b80156105f157508051630b135d3f60e11b906105ef90830160209081019084016109fa565b145b9695505050505050565b5f80808061060a602d86610a11565b90506020606086035f303c5f5193506020604086035f303c5f51925060208086035f303c50505f519193909250565b5f80807f7fffffffffffffffffffffffffffffff5d576e7357a4501ddfe92f46681b20a084111561067257505f915060039050826106f7565b604080515f808252602082018084528a905260ff891692820192909252606081018790526080810186905260019060a0016020604051602081039080840390855afa1580156106c3573d5f5f3e3d5ffd5b5050604051601f1901519150506001600160a01b0381166106ee57505f9250600191508290506106f7565b92505f91508190505b9450945094915050565b5f60208284031215610711575f5ffd5b81356001600160e01b03198116811461037f575f5ffd5b634e487b7160e01b5f52604160045260245ffd5b5f5f6040838503121561074d575f5ffd5b82359150602083013567ffffffffffffffff81111561076a575f5ffd5b8301601f8101851361077a575f5ffd5b803567ffffffffffffffff81111561079457610794610728565b604051601f8201601f19908116603f0116810167ffffffffffffffff811182821017156107c3576107c3610728565b6040528181528282016020018710156107da575f5ffd5b816020840160208301375f602083830101528093505050509250929050565b6001600160a01b038116811461080d575f5ffd5b50565b5f5f83601f840112610820575f5ffd5b50813567ffffffffffffffff811115610837575f5ffd5b60208301915083602082850101111561084e575f5ffd5b9250929050565b5f5f5f5f5f60808688031215610869575f5ffd5b8535610874816107f9565b945060208601359350604086013567ffffffffffffffff811115610896575f5ffd5b6108a288828901610810565b909450925050606086013560ff811681146108bb575f5ffd5b809150509295509295909350565b5f81518084528060208401602086015e5f602082860101526020601f19601f83011685010191505092915050565b602081525f61037f60208301846108c9565b5f5f5f6040848603121561091b575f5ffd5b8335610926816107f9565b9250602084013567ffffffffffffffff811115610941575f5ffd5b61094d86828701610810565b9497909650939450505050565b634e487b7160e01b5f52601160045260245ffd5b5f6001820161097f5761097f61095a565b5060010190565b818382375f9101908152919050565b5f602082840312156109a5575f5ffd5b815161037f816107f9565b634e487b7160e01b5f52602160045260245ffd5b828152604060208201525f6109dc60408301846108c9565b949350505050565b5f82518060208501845e5f920191825250919050565b5f60208284031215610a0a575f5ffd5b5051919050565b818103818111156101f7576101f761095a56fea2646970667358221220c84c35b4f31a70ffecbbfeef9ed5309ae4dc3266d7c6795b1e71ae4e14aba62a64736f6c634300081c0033",
  "linkReferences": {},
  "deployedLinkReferences": {}
}