{
  "_format": "hh3-artifact-1",
  "contractName": "ERC6551Account",
  "sourceName": "contracts/tba/ERC6551Account.sol",
  "abi": [
    {
      "inputs": [
        {
          "internalType": "address",
          "name": "to",
          "type": "address"
        },
        {
          "internalType": "uint256",
          "name": "value",
          "type": "uint256"
        },
        {
          "internalType": "bytes",
          "name": "data",
          "type": "bytes"
        },
        {
          "internalType": "uint8",
          "name": "operation",
          "type": "uint8"
        }
      ],
      "name": "execute",
      "outputs": [
        {
          "internalType": "bytes",
          "name": "result",
          "type": "bytes"
        }
      ],
      "stateMutability": "payable",
      "type": "function"
    },
    {
      "inputs": [
        {
          "internalType": "bytes32",
          "name": "hash",
          "type": "bytes32"
        },
        {
          "internalType": "bytes",
          "name": "signature",
          "type": "bytes"
        }
      ],
      "name": "isValidSignature",
      "outputs": [
        {
          "internalType": "bytes4",
          "name": "magicValue",
          "type": "bytes4"
        }
      ],
      "stateMutability": "view",
      "type": "function"
    },
    {
      "inputs": [
        {
          "internalType": "address",
          "name": "signer",
          "type": "address"
        },
        {
          "internalType": "bytes",
          "name": "",
          "type": "bytes"
        }
      ],
      "name": "isValidSigner",
      "outputs": [
        {
          "internalType": "bytes4",
          "name": "",
          "type": "bytes4"
        }
      ],
      "stateMutability": "view",
      "type": "function"
    },
    {
      "inputs": [],
      "name": "owner",
      "outputs": [
        {
          "internalType": "address",
          "name": "",
          "type": "address"
        }
      ],
      "stateMutability": "view",
      "type": "function"
    },
    {
      "inputs": [],
      "name": "state",
      "outputs": [
        {
          "internalType": "uint256",
          "name": "",
          "type": "uint256"
        }
      ],
      "stateMutability": "view",
      "type": "function"
    },
    {
      "inputs": [
        {
          "internalType": "bytes4",
          "name": "interfaceId",
          "type": "bytes4"
        }
      ],
      "name": "supportsInterface",
      "outputs": [
        {
          "internalType": "bool",
          "name": "",
          "type": "bool"
        }
      ],
      "stateMutability": "pure",
      "type": "function"
    },
    {
      "inputs": [],
      "name": "token",
      "outputs": [
        {
          "internalType": "uint256",
          "name": "",
          "type": "uint256"
        },
        {
          "internalType": "address",
          "name": "",
          "type": "address"
        },
        {
          "internalType": "uint256",
          "name": "",
          "type": "uint256"
        }
      ],
      "stateMutability": "view",
      "type": "function"
    },
    {
      "stateMutability": "payable",
      "type": "receive"
    }
  ],
  "bytecode": "0x6080604052348015600e575f5ffd5b506112898061001c5f395ff3fe608060405260043610610073575f3560e01c8063523e32601161004d578063523e3260146101265780638da5cb5b14610162578063c19d93fb1461018c578063fc0c546a146101b65761007a565b806301ffc9a71461007e5780631626ba7e146100ba57806351945447146100f65761007a565b3661007a57005b5f5ffd5b348015610089575f5ffd5b506100a4600480360381019061009f919061098b565b6101e2565b6040516100b191906109d0565b60405180910390f35b3480156100c5575f5ffd5b506100e060048036038101906100db9190610b58565b61031b565b6040516100ed9190610bc1565b60405180910390f35b610110600480360381019061010b9190610cfa565b610355565b60405161011d9190610dde565b60405180910390f35b348015610131575f5ffd5b5061014c60048036038101906101479190610dfe565b610480565b6040516101599190610bc1565b60405180910390f35b34801561016d575f5ffd5b506101766104ac565b6040516101839190610e6a565b60405180910390f35b348015610197575f5ffd5b506101a0610551565b6040516101ad9190610e92565b60405180910390f35b3480156101c1575f5ffd5b506101ca610556565b6040516101d993929190610eab565b60405180910390f35b5f7f01ffc9a7000000000000000000000000000000000000000000000000000000007bffffffffffffffffffffffffffffffffffffffffffffffffffffffff1916827bffffffffffffffffffffffffffffffffffffffffffffffffffffffff191614806102ac57507f6faff5f1000000000000000000000000000000000000000000000000000000007bffffffffffffffffffffffffffffffffffffffffffffffffffffffff1916827bffffffffffffffffffffffffffffffffffffffffffffffffffffffff1916145b8061031457507f1626ba7e000000000000000000000000000000000000000000000000000000007bffffffffffffffffffffffffffffffffffffffffffffffffffffffff1916827bffffffffffffffffffffffffffffffffffffffffffffffffffffffff1916145b9050919050565b5f5f61032f6103286104ac565b858561056c565b9050801561034757631626ba7e60e01b91505061034f565b5f60e01b9150505b92915050565b606061036033610618565b61039f576040517f08c379a000000000000000000000000000000000000000000000000000000000815260040161039690610f3a565b60405180910390fd5b5f8260ff16146103e4576040517f08c379a00000000000000000000000000000000000000000000000000000000081526004016103db90610fc8565b60405180910390fd5b5f5f81546103f190611013565b919050819055505f8673ffffffffffffffffffffffffffffffffffffffff16868686604051610421929190611088565b5f6040518083038185875af1925050503d805f811461045b576040519150601f19603f3d011682016040523d82523d5f602084013e610460565b606091505b50809350819250505080610476573d5f5f3e3d5ffd5b5095945050505050565b5f61048a84610618565b1561049e57631626ba7e60e01b90506104a5565b5f60e01b90505b9392505050565b5f5f5f5f6104b8610556565b9250925092504683146104d0575f935050505061054e565b8173ffffffffffffffffffffffffffffffffffffffff16636352211e826040518263ffffffff1660e01b81526004016105099190610e92565b602060405180830381865afa158015610524573d5f5f3e3d5ffd5b505050506040513d601f19601f8201168201806040525081019061054891906110b4565b93505050505b90565b5f5481565b5f5f5f610561610656565b925092509250909192565b5f5f8473ffffffffffffffffffffffffffffffffffffffff163b03610603575f5f6105978585610689565b50915091505f60038111156105af576105ae6110df565b5b8160038111156105c2576105c16110df565b5b1480156105fa57508573ffffffffffffffffffffffffffffffffffffffff168273ffffffffffffffffffffffffffffffffffffffff16145b92505050610611565b61060e8484846106de565b90505b9392505050565b5f6106216104ac565b73ffffffffffffffffffffffffffffffffffffffff168273ffffffffffffffffffffffffffffffffffffffff16149050919050565b5f5f5f5f3073ffffffffffffffffffffffffffffffffffffffff163b905061067d816107fd565b93509350935050909192565b5f5f5f60418451036106c9575f5f5f602087015192506040870151915060608701515f1a90506106bb8882858561083e565b9550955095505050506106d7565b5f600285515f1b9250925092505b9250925092565b5f5f5f8573ffffffffffffffffffffffffffffffffffffffff16858560405160240161070b92919061111b565b604051602081830303815290604052631626ba7e60e01b6020820180517bffffffffffffffffffffffffffffffffffffffffffffffffffffffff838183161783525050505060405161075d9190611179565b5f60405180830381855afa9150503d805f8114610795576040519150601f19603f3d011682016040523d82523d5f602084013e61079a565b606091505b50915091508180156107ae57506020815110155b80156107f25750631626ba7e60e01b7bffffffffffffffffffffffffffffffffffffffffffffffffffffffff1916818060200190518101906107f091906111a3565b145b925050509392505050565b5f5f5f5f602d8561080e91906111ce565b90506020606086035f303c5f5193506020604086035f303c5f51925060208086035f303c5f519150509193909250565b5f5f5f7f7fffffffffffffffffffffffffffffff5d576e7357a4501ddfe92f46681b20a0845f1c111561087a575f60038592509250925061091b565b5f6001888888886040515f815260200160405260405161089d9493929190611210565b6020604051602081039080840390855afa1580156108bd573d5f5f3e3d5ffd5b5050506020604051035190505f73ffffffffffffffffffffffffffffffffffffffff168173ffffffffffffffffffffffffffffffffffffffff160361090e575f60015f5f1b9350935093505061091b565b805f5f5f1b935093509350505b9450945094915050565b5f604051905090565b5f5ffd5b5f5ffd5b5f7fffffffff0000000000000000000000000000000000000000000000000000000082169050919050565b61096a81610936565b8114610974575f5ffd5b50565b5f8135905061098581610961565b92915050565b5f602082840312156109a05761099f61092e565b5b5f6109ad84828501610977565b91505092915050565b5f8115159050919050565b6109ca816109b6565b82525050565b5f6020820190506109e35f8301846109c1565b92915050565b5f819050919050565b6109fb816109e9565b8114610a05575f5ffd5b50565b5f81359050610a16816109f2565b92915050565b5f5ffd5b5f5ffd5b5f601f19601f8301169050919050565b7f4e487b71000000000000000000000000000000000000000000000000000000005f52604160045260245ffd5b610a6a82610a24565b810181811067ffffffffffffffff82111715610a8957610a88610a34565b5b80604052505050565b5f610a9b610925565b9050610aa78282610a61565b919050565b5f67ffffffffffffffff821115610ac657610ac5610a34565b5b610acf82610a24565b9050602081019050919050565b828183375f83830152505050565b5f610afc610af784610aac565b610a92565b905082815260208101848484011115610b1857610b17610a20565b5b610b23848285610adc565b509392505050565b5f82601f830112610b3f57610b3e610a1c565b5b8135610b4f848260208601610aea565b91505092915050565b5f5f60408385031215610b6e57610b6d61092e565b5b5f610b7b85828601610a08565b925050602083013567ffffffffffffffff811115610b9c57610b9b610932565b5b610ba885828601610b2b565b9150509250929050565b610bbb81610936565b82525050565b5f602082019050610bd45f830184610bb2565b92915050565b5f73ffffffffffffffffffffffffffffffffffffffff82169050919050565b5f610c0382610bda565b9050919050565b610c1381610bf9565b8114610c1d575f5ffd5b50565b5f81359050610c2e81610c0a565b92915050565b5f819050919050565b610c4681610c34565b8114610c50575f5ffd5b50565b5f81359050610c6181610c3d565b92915050565b5f5ffd5b5f5ffd5b5f5f83601f840112610c8457610c83610a1c565b5b8235905067ffffffffffffffff811115610ca157610ca0610c67565b5b602083019150836001820283011115610cbd57610cbc610c6b565b5b9250929050565b5f60ff82169050919050565b610cd981610cc4565b8114610ce3575f5ffd5b50565b5f81359050610cf481610cd0565b92915050565b5f5f5f5f5f60808688031215610d1357610d1261092e565b5b5f610d2088828901610c20565b9550506020610d3188828901610c53565b945050604086013567ffffffffffffffff811115610d5257610d51610932565b5b610d5e88828901610c6f565b93509350506060610d7188828901610ce6565b9150509295509295909350565b5f81519050919050565b5f82825260208201905092915050565b8281835e5f83830152505050565b5f610db082610d7e565b610dba8185610d88565b9350610dca818560208601610d98565b610dd381610a24565b840191505092915050565b5f6020820190508181035f830152610df68184610da6565b905092915050565b5f5f5f60408486031215610e1557610e1461092e565b5b5f610e2286828701610c20565b935050602084013567ffffffffffffffff811115610e4357610e42610932565b5b610e4f86828701610c6f565b92509250509250925092565b610e6481610bf9565b82525050565b5f602082019050610e7d5f830184610e5b565b92915050565b610e8c81610c34565b82525050565b5f602082019050610ea55f830184610e83565b92915050565b5f606082019050610ebe5f830186610e83565b610ecb6020830185610e5b565b610ed86040830184610e83565b949350505050565b5f82825260208201905092915050565b7f496e76616c6964207369676e65720000000000000000000000000000000000005f82015250565b5f610f24600e83610ee0565b9150610f2f82610ef0565b602082019050919050565b5f6020820190508181035f830152610f5181610f18565b9050919050565b7f4f6e6c792063616c6c206f7065726174696f6e732061726520737570706f72745f8201527f6564000000000000000000000000000000000000000000000000000000000000602082015250565b5f610fb2602283610ee0565b9150610fbd82610f58565b604082019050919050565b5f6020820190508181035f830152610fdf81610fa6565b9050919050565b7f4e487b71000000000000000000000000000000000000000000000000000000005f52601160045260245ffd5b5f61101d82610c34565b91507fffffffffffffffffffffffffffffffffffffffffffffffffffffffffffffffff820361104f5761104e610fe6565b5b600182019050919050565b5f81905092915050565b5f61106f838561105a565b935061107c838584610adc565b82840190509392505050565b5f611094828486611064565b91508190509392505050565b5f815190506110ae81610c0a565b92915050565b5f602082840312156110c9576110c861092e565b5b5f6110d6848285016110a0565b91505092915050565b7f4e487b71000000000000000000000000000000000000000000000000000000005f52602160045260245ffd5b611115816109e9565b82525050565b5f60408201905061112e5f83018561110c565b81810360208301526111408184610da6565b90509392505050565b5f61115382610d7e565b61115d818561105a565b935061116d818560208601610d98565b80840191505092915050565b5f6111848284611149565b915081905092915050565b5f8151905061119d816109f2565b92915050565b5f602082840312156111b8576111b761092e565b5b5f6111c58482850161118f565b91505092915050565b5f6111d882610c34565b91506111e383610c34565b92508282039050818111156111fb576111fa610fe6565b5b92915050565b61120a81610cc4565b82525050565b5f6080820190506112235f83018761110c565b6112306020830186611201565b61123d604083018561110c565b61124a606083018461110c565b9594505050505056fea2646970667358221220ead6f3a50f3be1d7f3b1637b7bc71f08974a0c4a73a57770ac8c72d07ab5964764736f6c634300081c0033",
  "linkReferences": {},
  "deployedLinkReferences": {},
  "immutableReferences": {},
  "inputSourceName": "project/contracts/tba/ERC6551Account.sol",
  "buildInfoId": "solc-0_8_28-4bc73337f03207b2dc3da90a7e4e5d78aabe7052"
}